{
  "contractName": "HackRates",
  "abi": [
    {
      "anonymous": false,
      "inputs": [
        {
          "indexed": false,
          "name": "id",
          "type": "uint256"
        }
      ],
      "name": "newRating",
      "type": "event"
    },
    {
      "constant": false,
      "inputs": [
        {
          "name": "projectID",
          "type": "uint256"
        },
        {
          "name": "creativity",
          "type": "uint256"
        },
        {
          "name": "technicalComplexity",
          "type": "uint256"
        },
        {
          "name": "bestPractices",
          "type": "uint256"
        }
      ],
      "name": "addRating",
      "outputs": [
        {
          "name": "ratingID",
          "type": "uint256"
        }
      ],
      "payable": false,
      "stateMutability": "nonpayable",
      "type": "function"
    },
    {
      "constant": true,
      "inputs": [],
      "name": "getRatingsCount",
      "outputs": [
        {
          "name": "count",
          "type": "uint256"
        }
      ],
      "payable": false,
      "stateMutability": "view",
      "type": "function"
    },
    {
      "constant": true,
      "inputs": [
        {
          "name": "index",
          "type": "uint256"
        }
      ],
      "name": "getRating",
      "outputs": [
        {
          "name": "projectID",
          "type": "uint256"
        },
        {
          "name": "creativity",
          "type": "uint256"
        },
        {
          "name": "technicalComplexity",
          "type": "uint256"
        },
        {
          "name": "bestPractices",
          "type": "uint256"
        }
      ],
      "payable": false,
      "stateMutability": "view",
      "type": "function"
    }
  ],
  "bytecode": "0x608060405234801561001057600080fd5b50610342806100206000396000f300608060405260043610610057576000357c0100000000000000000000000000000000000000000000000000000000900463ffffffff1680633757df991461005c578063b0ee0e9f146100bb578063cefa79ab14610111575b600080fd5b34801561006857600080fd5b506100a56004803603810190808035906020019092919080359060200190929190803590602001909291908035906020019092919050505061013c565b6040518082815260200191505060405180910390f35b3480156100c757600080fd5b506100e660048036038101908080359060200190929190505050610200565b6040518085815260200184815260200183815260200182815260200194505050505060405180910390f35b34801561011d57600080fd5b50610126610299565b6040518082815260200191505060405180910390f35b60008080549050905060806040519081016040528086815260200185815260200184815260200183815250600080805480919060010161017c91906102a5565b81548110151561018857fe5b9060005260206000209060040201600082015181600001556020820151816001015560408201518160020155606082015181600301559050507f9b336ff7e5f3ecea3c7ffc40e7e0b6c5d5026c8a4b9a517b57f1ed5849db8856816040518082815260200191505060405180910390a1949350505050565b60008060008060008581548110151561021557fe5b906000526020600020906004020160000154935060008581548110151561023857fe5b906000526020600020906004020160010154925060008581548110151561025b57fe5b906000526020600020906004020160020154915060008581548110151561027e57fe5b90600052602060002090600402016003015490509193509193565b60008080549050905090565b8154818355818111156102d2576004028160040283600052602060002091820191016102d191906102d7565b5b505050565b61031391905b8082111561030f57600080820160009055600182016000905560028201600090556003820160009055506004016102dd565b5090565b905600a165627a7a7230582041a506985088ed4cd6015950f4b2d967c9abaeafc9ddb6986c94e5296cb90dab0029",
  "source": "pragma solidity ^0.4.16;\n\ncontract HackRates {\n  event newRating(uint id);\n\n  struct Rating {\n    uint projectID;\n    uint creativity;\n    uint technicalComplexity;\n    uint bestPractices;\n  }\n\n  Rating[] ratings;\n\n  function addRating(\n    uint projectID,\n    uint creativity,\n    uint technicalComplexity,\n    uint bestPractices\n  ) public returns (uint ratingID) {\n    ratingID = ratings.length;\n    ratings[ratings.length++] = Rating(projectID, creativity, technicalComplexity, bestPractices);\n    emit newRating(ratingID);\n  }\n\n  function getRatingsCount() constant public returns (uint count) {\n    return ratings.length;\n  }\n\n  function getRating(uint index) constant public returns (\n    uint projectID,\n    uint creativity,\n    uint technicalComplexity,\n    uint bestPractices\n  ) {\n    projectID = ratings[index].projectID;\n    creativity = ratings[index].creativity;\n    technicalComplexity = ratings[index].technicalComplexity;\n    bestPractices = ratings[index].bestPractices;\n  }\n}\n",
  "sourcePath": "/Users/Michael/Documents/GitHub/mlh-localhost-hackrates-master/truffle/contracts/hackrates.sol",
  "compiler": {
    "name": "solc",
    "version": "0.4.24+commit.e67f0147.Emscripten.clang"
  },
  "schemaVersion": "2.0.1",
  "updatedAt": "2018-10-23T00:23:58.902Z"
}